:020000040800F2
:10000000000005209144000821100008231000087A
:100010002510000827100008291000080000000023
:100020000000000000000000000000002B1000088D
:100030002D100008000000002F10000831100008EB
:10004000E1440008E1440008E1440008E1440008FC
:10005000E1440008E1440008E1440008E1440008EC
:10006000E1440008E1440008E144000839100008B8
:10007000E144000849100008E1440008E144000898
:10008000E1440008E1440008E1440008E1440008BC
:10009000E1440008E1440008E1440008E1440008AC
:1000A000E1440008E1440008E1440008E14400089C
:1000B000E1440008E1440008E1440008E14400088C
:1000C000E1440008E1440008E1440008E14400087C
:1000D000E1440008E1440008E1440008E14400086C
:1000E000E1440008E1440008E1440008E14400085C
:1000F000E1440008E1440008E1440008E14400084C
:10010000E1440008E1440008E1440008E14400083B
:10011000E1440008E144000859100008E1440008E7
:10012000E1440008E1440008E1440008E14400081B
:10013000E1440008E1440008E1440008E14400080B
:10014000E1440008E1440008E1440008E1440008FB
:10015000E1440008E1440008E1440008E1440008EB
:10016000E1440008E1440008E1440008E1440008DB
:10017000E1440008E1440008E144000800000000F8
:10018000E1440008E1440008E1440008E1440008BB
:10019000E1440008E1440008E1440008E1440008AB
:1001A000E1440008E14400080000000000000000F5
:1001B00070B54FF0FF0C4CF4E06C1CEA11541DBFFD
:1001C0001CEA135594EA0C0F95EA0C0F00F0DEF8C8
:1001D0002C4481EA030621EA4C5123EA4C5350EAAD
:1001E000013518BF52EA033541F4801143F48013FE
:1001F00038D0A0FB02CE4FF00005E1FB02E506F08F
:100200000042E0FB03E54FF00006E1FB03569CF0E3
:10021000000F18BF4EF0010EA4F1FF04B6F5007FE9
:1002200064F5407404D25FEA4E0E6D4146EB06065B
:1002300042EAC62141EA55514FEAC52040EA5E50E4
:100240004FEACE2EB4F1FD0C88BFBCF5E06F1ED88E
:10025000BEF1004F08BF5FEA500E50F1000041EBC5
:10026000045170BD06F0004646EA010140EA020072
:1002700081EA0301B4EB5C04C2BFD4EB0C0541EA94
:10028000045170BD41F480114FF0000E013C00F3A9
:10029000AB8014F1360FDEBF002001F0004170BDCD
:1002A000C4F10004203C35DA0C341BDC04F11404E6
:1002B000C4F1200500FA05F320FA04F001FA05F272
:1002C00040EA020001F0004221F0004110EBD3703F
:1002D00021FA04F642EB06015EEA430E08BF20EA6B
:1002E000D37070BDC4F10C04C4F1200500FA04F30E
:1002F00020FA05F001FA04F240EA020001F00041A0
:1003000010EBD37041F100015EEA430E08BF20EA12
:10031000D37070BDC4F1200500FA05F24EEA020E5A
:1003200020FA04F301FA05F243EA020321FA04F089
:1003300001F0004121FA04F220EA020000EBD37040
:100340005EEA430E08BF20EAD37070BD94F0000F40
:100350000FD101F00046400041EB010111F4801F74
:1003600008BF013CF7D041EA060195F0000F18BF25
:10037000704703F00046520043EB030313F4801F61
:1003800008BF013DF7D043EA0603704794EA0C0F1B
:100390000CEA135518BF95EA0C0F0CD050EA410631
:1003A00018BF52EA4306D1D181EA030101F00041AE
:1003B0004FF0000070BD50EA410606BF10461946D6
:1003C00052EA430619D094EA0C0F02D150EA0136E2
:1003D00013D195EA0C0F05D152EA03361CBF104623
:1003E00019460AD181EA030101F0004141F0FE41C2
:1003F00041F470014FF0000070BD41F0FE4141F446
:10040000780170BD81F0004102E000BF83F000433D
:1004100030B54FEA41044FEA430594EA050F08BF9F
:1004200090EA020F1FBF54EA000C55EA020C7FEA63
:10043000645C7FEA655C00F0E2804FEA5454D4EBE0
:100440005555B8BF6D420CDD2C4480EA020281EAAA
:10045000030382EA000083EA010180EA020281EAE2
:100460000303362D88BF30BD11F0004F4FEA013134
:100470004FF4801C4CEA113102D0404261EB410143
:1004800013F0004F4FEA03334CEA133302D05242C9
:1004900063EB430394EA050F00F0A780A4F1010485
:1004A000D5F1200E0DDB02FA0EFC22FA05F28018BF
:1004B00041F1000103FA0EF2801843FA05F35941A5
:1004C0000EE0A5F120050EF1200E012A03FA0EFC24
:1004D00028BF4CF0020C43FA05F3C01851EBE3714E
:1004E00001F0004507D54FF0000EDCF1000C7EEB6B
:1004F00000006EEB0101B1F5801F1BD3B1F5001FA9
:100500000CD349085FEA30004FEA3C0C04F10104C7
:100510004FEA445212F5800F80F09A80BCF1004FF0
:1005200008BF5FEA500C50F1000041EB045141EA72
:10053000050130BD5FEA4C0C404141EB0101013C3B
:1005400028BFB1F5801FE9D291F0000F04BF01462A
:100550000020B1FA81F308BF2033A3F10B03B3F1FC
:1005600020020CDA0C3208DD02F1140CC2F10C028C
:1005700001FA0CF021FA02F10CE002F11402D8BFEA
:10058000C2F1200C01FA02F120FA0CFCDCBF41EAB6
:100590000C019040E41AA2BF01EB0451294330BD85
:1005A0006FEA04041F3C1CDA0C340EDC04F1140462
:1005B000C4F1200220FA04F001FA02F340EA030039
:1005C00021FA04F345EA030130BDC4F10C04C4F17F
:1005D000200220FA02F001FA04F340EA030029465F
:1005E00030BD21FA04F0294630BD94F0000F83F4A9
:1005F000801306BF81F480110134013D4EE77FEA8C
:10060000645C18BF7FEA655C29D094EA050F08BFD7
:1006100090EA020F05D054EA000C04BF19461046B8
:1006200030BD91EA030F1EBF0021002030BD5FEAFC
:10063000545C05D14000494128BF41F0004130BD24
:1006400014F580043CBF01F5801130BD01F0004578
:1006500045F0FE4141F470014FF0000030BD7FEAEB
:10066000645C1ABF194610467FEA655C1CBF0B46E6
:10067000024650EA013406BF52EA033591EA030FFD
:1006800041F4002130BD00BF90F0000F04BF0021F5
:10069000704730B54FF4806404F132044FF0000528
:1006A0004FF0000150E700BF90F0000F04BF0021A1
:1006B000704730B54FF4806404F1320410F0004507
:1006C00048BF40424FF000013EE700BF42004FEA02
:1006D000E2014FEA31014FEA02701FBF12F07F437F
:1006E00093F07F4F81F06051704732F07F4208BF36
:1006F000704793F07F4F04BF41F40021704730B53D
:100700004FF4607401F0004521F000411CE700BF88
:1007100050EA010208BF704730B54FF000050AE00B
:1007200050EA010208BF704730B511F0004502D50C
:10073000404261EB41014FF4806404F132045FEA0E
:10074000915C3FF4D8AE4FF003025FEADC0C18BFB7
:1007500003325FEADC0C18BF033202EBDC02C2F1A9
:10076000200300FA03FC20FA02F001FA03FE40EA3B
:100770000E0021FA02F11444BDE600BF4FEA410227
:1007800012F5001215D211D56FF47873B3EB6252E3
:1007900012D94FEAC12343F0004343EA505311F00A
:1007A000004F23FA02F018BF404270474FF000009C
:1007B000704750EA013005D111F0004008BF6FF0DA
:1007C000004070474FF00000704700BF53B94AB96E
:1007D000002908BF00281CBF4FF0FF314FF0FF3049
:1007E00000F00CB8ADF1080C6DE904CE03F0A6FEE4
:1007F000DDF804E0DDE9022304B07047704700BF74
:1008000010B5054C237833B9044B13B10448AFF34A
:1008100000800123237010BD1000002000000000A4
:100820000448000808B5034B1BB103490348AFF364
:10083000008008BD000000001400002004480008EB
:10084000F0B58BB00024059406940794089409949D
:10085000324BDA6C42F00402DA64DA6C02F0040221
:100860000092009ADA6C42F08002DA64DA6C02F0EC
:1008700080020192019ADA6C42F00102DA64DA6CC9
:1008800002F001020292029ADA6C42F00202DA6489
:10089000DA6C02F002020392039ADA6C42F0400230
:1008A000DA64DB6C03F040030493049B01F000FF67
:1008B0001B4F22464FF48141384601F0E3FD194DAC
:1008C00022464021284601F0DDFD4FF400530593F8
:1008D0004FF488130693079405A9134801F0DAFC36
:1008E0004FF481430593012606960794089405A9C1
:1008F000384601F0CFFC202305930694079405A900
:10090000284601F0C7FC40230593069607940894F7
:1009100005A9284601F0BEFC0BB0F0BD0010024056
:1009200000040048001800480008004800B583B0E3
:100930000E4B9A6C42F001029A649B6C03F0010327
:100940000193019B002211460B2001F069F90B2055
:1009500001F09EF9002211460D2001F061F90D20F1
:1009600001F096F903B05DF804FB00BF00100240EF
:10097000D0B582B001230193234B834201D002B052
:10098000D0BD224B1C68224B53F8240007EE900A7E
:10099000F8EE677A17EE900AFFF798FE00224FF004
:1009A0007D53FFF705FC06460F460198FFF77CFED6
:1009B00032463B46FFF72CFD0022164BFFF726FD83
:1009C0000FA3D3E90023FFF7F3FBFFF7D7FE124B8A
:1009D00043F82400114A136801331360B3F57A7F9A
:1009E00008D00134094B1C60B4F5807FC7D10022C8
:1009F0001A60C4E7134600221A60F2E7AFF30080E2
:100A00000000000000FC9F40D40E00202C040020B9
:100A10002C0000200000F03F3404002030040020AF
:100A200072B6FEE700B58BB02422002101A803F0C6
:100A300058FD0D480D4B036001F04CF978B90022C8
:100A4000019204230293022303930492059201A9C5
:100A5000054801F022FA20B90BB05DF804FBFFF75E
:100A6000DFFFFFF7DDFF00BF9C080020007400409F
:100A700008B50B480B4B03600B4B43604FF08053A2
:100A800083600023C36003610C22426183610362BF
:100A9000436203F038FB00B908BDFFF7C1FF00BF98
:100AA00040090020008000402433030008B50B48B3
:100AB0004FF0A04303600623436002230361836178
:100AC0000123C36100220262426283620263C36245
:100AD00001F0DDFC00B908BDFFF7A2FFC809002046
:100AE00000B58BB0002307930893099301930293F9
:100AF00003930493059306931E481F4A02604360C4
:100B00008360C3600361042242610376437601225D
:100B1000C26180F820304FF4E86181624FF4806157
:100B2000C16280F83020436380F8383000F008FB61
:100B3000D0B90023079307A90E4800F0C3FFA8B956
:100B40000E4B019306230293002303930C4A049255
:100B50000422059206930DEB0201064800F048FCC2
:100B600030B90BB05DF804FBFFF75AFFFFF758FFF1
:100B7000FFF756FF34080020000004500200300444
:100B800000007F4000B585B00023019302930393DA
:100B90000D480E4A0260436083604FF4F672C260F3
:100BA000836102F061FF58B920230193002303936E
:100BB00001A9054802F088FF20B905B05DF804FBE3
:100BC000FFF72EFFFFF72CFFD40E0020001000408F
:100BD00000B597B04422002105A803F082FC002351
:100BE000009301930293039304934FF4007001F078
:100BF0000FFD002833D101F0FBFC1C4AD2F89030E5
:100C000023F01803C2F890301423059301230793AF
:100C10000B9300220C9260220D9202220F921093ED
:100C2000119347231293139214920423159305A84A
:100C300001F0E8FDA8B90F230093032301930023DB
:100C400002934FF48062039204930421684602F0F9
:100C500017F940B902F094FD17B05DF804FBFFF7F7
:100C6000DFFEFFF7DDFEFFF7DBFE00BF00100240F6
:100C700000B5A5B08C22002101A803F032FC4FF48E
:100C8000C04301934FF0805320934FF080631D9336
:100C900001230293039318230493022305930693DD
:100CA00007934FF08873089301A802F031FB10B945
:100CB00025B05DF804FBFFF7B3FE000000B583B07C
:100CC00000F008FAFFF784FFFFF7D2FFFFF7B8FD47
:100CD000FFF72CFEFFF7A6FEFFF7CAFEFFF7E6FEC2
:100CE000FFF7FEFEFFF74EFF084802F051FD4FF4FC
:100CF00080720749074800F059FE002100914FF427
:100D00008073054A054800F0F7FFFEE7D40E002087
:100D10002C00002034080020340400209C0800200F
:100D200082B00A4B1A6E42F001021A661A6E02F085
:100D300001020092009A9A6D42F080529A659B6D72
:100D400003F080530193019B02B0704700100240F2
:100D500010B588B00023039304930593069307937B
:100D60000268204B9A4201D008B010BD044603F13E
:100D70007043A3F5F833DA6C42F40052DA64DA6CAB
:100D800002F400520192019ADA6C42F00402DA6431
:100D9000DB6C03F004030293029B0323039304938D
:100DA00003A9114801F076FA1048114B03600023A3
:100DB00043608360C360802303614FF40073436129
:100DC0004FF4006383612023C3614FF40053036237
:100DD00001F03EF918B9054B23659C62C4E7FFF7A3
:100DE0001FFEF8E70000045000080048B00800208B
:100DF0000800024030B589B00023039304930593A3
:100E0000069307930268254B9A4201D009B030BD82
:100E1000044603F5CE339A6D42F000529A659A6DFE
:100E200002F000520192019ADA6C42F00102DA6497
:100E3000DB6C03F001030293029B1025039503234F
:100E4000049303A94FF0904001F024FA1448154B85
:100E500003600623436085600023C3608023036131
:100E60004FF4007343614FF4006383612023C36137
:100E70004FF40053036201F0EBF858B9084BA3603C
:100E80009C6200221146362000F0CAFE362000F097
:100E9000FFFEBBE7FFF7C4FDF0E700BF00740040B2
:100EA000F80800203000024010B5AAB00446002126
:100EB000259126912791289129918C2202A803F04F
:100EC00010FB2268194B9A4201D02AB010BD202392
:100ED000029302A802F01CFA20BB154BDA6D42F017
:100EE0000102DA65DA6D02F001020092009ADA6C12
:100EF00042F04002DA64DB6C03F040030193019B93
:100F000001F0D6FB4FF4C0732593022326930023F0
:100F10002793032328930823299325A9054801F043
:100F2000B9F9D2E7FFF77CFDD7E700BF00800040AA
:100F3000001002400018004802680E4B9A4200D090
:100F4000704700B583B003F500339A6D42F010028C
:100F50009A659B6D03F010030193019B00221146DB
:100F6000362000F05DFE362000F092FE03B05DF802
:100F700004FB00BF0010004010B588B000230393AD
:100F800004930593069307930368B3F1A04F01D030
:100F900008B010BD214CE36C43F00103E364E36C43
:100FA00003F001030093009B4FF4E85303930223E3
:100FB0000493032306930A23079303A94FF0904059
:100FC00001F068F94FF40073039300230493059331
:100FD00003A94FF0904001F05DF9E36C43F48053B6
:100FE000E364E36C03F480530193019BA36D13F05E
:100FF000805F0FD1A36D43F08053A365A36D03F011
:1010000080530293029B01F04BFBA36D23F08053AE
:10101000A365BDE701F044FBBAE700BF0010024042
:10102000FEE7FEE7FEE7FEE7FEE770477047704722
:1010300008B500F05FF808BD08B5024801F0C7F830
:1010400008BD00BFB008002008B5024801F0BFF895
:1010500008BD00BFF808002008B5034802F0E2FB15
:10106000024800F0E2FE08BDD40E00209C080020DB
:10107000034AD2F8883043F47003C2F888307047CE
:1010800000ED00E0104B1B780BB90120704710B544
:1010900004464FF47A70B0FBF3F30C4A1068B0FBCF
:1010A000F3F000F003FE68B90F2C01D901200AE02B
:1010B000002221464FF0FF3000F0B2FD044B1C60CF
:1010C000002000E0012010BD0400002000000020EE
:1010D0000800002010B5032000F090FD0020FFF76D
:1010E000D1FF10B10124204610BD0446FFF718FEC1
:1010F000F9E70000034B1B78034A11680B441360A7
:10110000704700BF04000020200F0020014B18682A
:10111000704700BF200F002038B50446FFF7F6FFE8
:101120000546B4F1FF3F02D0044B1B781C44FFF787
:10113000EDFF401BA042FAD338BD00BF04000020E1
:1011400030B583B000230193002800F0E780044607
:10115000836D13B323689A6812F0005F05D09A6814
:1011600022F0204222F03F029A602268936813F036
:10117000805F1FD1936823F0104323F03F0343F0B7
:1011800080539360664B1B689B09664AA2FB03234E
:101190009B0901335B00019309E0FFF7D9FD0023B0
:1011A000E36584F85430D5E7019B013B0193019B33
:1011B000002BF9D12268936813F0805F40F085809E
:1011C000A36D43F01003A365E36D43F00103E365F2
:1011D0000120936813F0040300D00123A16D11F0E6
:1011E000100F40F09480002B40F09180A36D23F409
:1011F000817343F00203A365936813F0010F1BD1C1
:10120000494B9A6812F0010200D00122474B9B68BB
:1012100013F0010300D001231343454A926812F0F2
:10122000010200D00122134306D1636841498A6854
:1012300022F47C1213438B60627E636B43EA423379
:10124000E2681343A268134394F8202043EA024360
:10125000012A3CD0A26A22B102F47072E16A0A4308
:1012600013432168CD68344A2A401A43CA60226871
:10127000936813F0080300D00123BBB9E36C217E0F
:1012800043EA813394F8301043EA4101D36823F4F0
:10129000804323F006030B43D36094F83830012BCE
:1012A0001AD02268136923F0010313612369012B0B
:1012B00024D02268136B23F00F031363A36D23F074
:1012C000030343F00103A36526E0002081E7626A7F
:1012D000013A43EA4243BDE721680B6923F4FF6307
:1012E00023F00403E26B256C2A43656C2A43A56C4A
:1012F0002A43134343F001030B61D7E721680B6BCB
:1013000023F00F03E269013A13430B63D6E7A36DA1
:1013100043F01003A365012003B030BD0120FBE7BB
:1013200000000020632D3E05000004500001045021
:10133000000204500003045007C0F0FF70477047DC
:1013400008B5806AFFF7FBFF08BD704708B5034684
:10135000806A826D12F0500F30D1836D43F40073B8
:10136000836503681A6812F0080F14D0DA6812F463
:10137000406F20D1DB6813F4005F1CD1836D23F430
:1013800080738365836D13F4805F14D1836D43F0A4
:10139000010383650FE0DB6813F0020F0BD1836D4F
:1013A00023F480738365836D13F4805F03D1836DB1
:1013B00043F001038365FFF7C1FF08BD826D12F0A2
:1013C000100F04D1026D526B18469047F5E7FFF7F6
:1013D000BCFFF2E708B5806A836D43F04003836584
:1013E000C36D43F00403C365FFF7AFFF08BD000002
:1013F000F0B583B00022019290F85420012A00F049
:101400005D820346012280F854200068826812F051
:10141000040F09D09A6D42F020029A650120002243
:1014200083F8542003B0F0BD4A68052A08D8023A70
:10143000032A00F29A80DFE802F0029A93950C22C8
:1014400000F1300E100A800000F00C005EF8004041
:1014500002F01F024FF01F0C0CFA02FC24EA0C0CE5
:101460000C68C4F3846404FA02F24CEA02024EF8F7
:1014700000201C68A26812F0040200D00122A068BB
:1014800010F0080000D00120002A34D1002832D109
:101490008868B0F1004F6CD00E681434720E920060
:1014A00002F00402A558C6F3045C072606FA0CF6FF
:1014B00025EA060500FA0CF02843A0501868426996
:1014C00022F0004242614C691868C268C2F3C1024E
:1014D000520094400D69042D60D00E68603050F8C1
:1014E0002570B04A3A4006F0F8463443224342F0B1
:1014F000004240F825201868826812F0010F18D1C8
:101500000A68CD68D0F8B040C2F3120C24EA0C048B
:1015100005F0180CA44D25FA0CFC02EA0C02C2F3EB
:1015200012022243C0F8B020C868A04A904200F0DE
:101530009D800A689E490A4200F0BC819D498968E5
:1015400001F0E0749C48824200F05E819B48824238
:1015500000F085819A48824200F0998100205EE780
:1015600018226DE74FF480726AE7062268E71222BC
:1015700066E708681434420E920002F00402A5588F
:10158000C0F30450072606FA00F025EA0000A05038
:101590001868426942F00042426194E7026E046EAC
:1015A000C4F384640A68C2F3120585BBC2F3846283
:1015B000944234D01C68626E606EC0F384600A6826
:1015C000C2F3120585BBC2F38462904234D01C681A
:1015D000A26EA06EC0F384600A68C2F3120585BBD8
:1015E000C2F38462904234D01C68E26EE06EC0F3B5
:1015F00084600A68C2F3120585BBC2F3846290421C
:101600007FF479AFE26E22F00042E26673E792FA6D
:10161000A2F212B1B2FA82F2CAE72022C8E7026E41
:1016200022F000420266C5E792FAA2F212B1B2FAC3
:1016300082F2CAE72022C8E7626E22F000426266A8
:10164000C5E792FAA2F212B1B2FA82F2CAE72022F8
:10165000C8E7A26E22F00042A266C5E792FAA2F2A3
:1016600012B1B2FA82F2CAE72022C8E71C680A68FF
:10167000C2F31205002D38D1900E013000F01F008A
:1016800009288CBF00200120002866D0002D3BD106
:10169000900E0130800600F0F840002D40D1970EEA
:1016A000013707F01F070126BE403043002D46D109
:1016B000920E013202F01F0202EB420212051043A9
:1016C0008D6804F1140E420E920002F004025EF8DE
:1016D0000240C0F304500726864024EA060C8540E9
:1016E0004CEA05054EF8025023E792FAA2F048B101
:1016F000B0FA80F0013000F01F0009288CBF0020F4
:101700000120C1E72020F5E792FAA2F030B1B0FA4B
:1017100080F00130800600F0F840BEE72020F8E7B6
:1017200092FAA2F64EB1B6FA86F6013606F01F0618
:101730004FF0010C0CFA06F6B7E72026F5E792FA0F
:10174000A2F242B1B2FA82F2013202F01F0202EBBF
:1017500042021205B3E72022F6E7CDB9900E013020
:10176000800600F0F8407DBB970E013707F01F0799
:101770000126BE403043B5BB920E013202F01F027B
:1017800002EB42021E3A120542F00072104397E744
:1017900092FAA2F0B0B1B0FA80F00130800600F009
:1017A000F840E0E700F0FF03FFFF070000007F4084
:1017B0000000088000030450000052C7000084CBE2
:1017C000010000802020E8E792FAA2F64EB1B6FAB6
:1017D00086F6013606F01F064FF0010C0CFA06F6ED
:1017E000C8E72026F5E792FAA2F25AB1B2FA82F2DD
:1017F000013202F01F0202EB42021E3A120542F0D1
:101800000072C3E72022F3E711F4000F7FF49EAECD
:101810001A682B498A4205D001F500718A4201D02D
:101820000020FCE544F4000426498A6822F0E072B6
:1018300014438C60244A126892092449A1FB0212C5
:101840009209013202EB42029200019202E0019AF7
:10185000013A0192019A002AF9D10020DFE511F046
:10186000807F7FF477AE1A6815498A4205D001F56A
:1018700000718A4201D00020D1E544F08072114805
:10188000816821F0E0710A4382600020C7E511F40D
:10189000800F11D119680A4A914201D00020BEE59B
:1018A00044F480020748816821F0E0710A438260B5
:1018B0000020B4E50020B2E50020B0E50220B1E54B
:1018C000000004500003045000000020632D3E057A
:1018D00030B583B00023019303689A6812F0010FBA
:1018E00058D1044699682D4A114219D19A6822F0BC
:1018F000004222F03F0242F001029A60284B9B68AE
:1019000013F4000F1CD0274B1B689B09264AA2FB2F
:1019100003239B09013303EB43039B0001930CE07A
:10192000836D43F010038365C36D43F00103C3650A
:10193000012030E0019B013B0193019B002BF9D179
:10194000FFF7E4FB054623681A6812F0010F1FD168
:101950009A6812F0010F07D19A6822F0004222F033
:101960003F0242F001029A60FFF7D0FB431B022BBB
:10197000E9D923681B6813F0010FE4D1A36D43F08C
:101980001003A365E36D43F00103E365012002E06A
:10199000002000E0002003B030BD00BF3F00008009
:1019A0000003045000000020632D3E052DE9F041A6
:1019B00004463E4B9E680068856815F0040F6FD1A1
:1019C0000F46904606F01F0694F85430012B6AD05B
:1019D000012384F85430364B98420CD0092E05D898
:1019E00040F22123F34013F0010F04D1002384F8C7
:1019F0005430012055E02046FFF76AFF00284BD104
:101A0000A36D23F4706323F0010343F48073A36593
:101A10002368284A934239D01A46934200D01EB90F
:101A2000A36D23F48013A365A36D13F4805F30D0FE
:101A3000E36D23F00603E365236D1F4ADA62236D2D
:101A40001E4A1A63236D1E4A5A6323681C221A60B9
:101A5000002384F854302268536843F01003536025
:101A60002268D36843F00103D360216843463A46B5
:101A70004031206D00F070FB2268936823F0004332
:101A800023F03F0343F0040393600AE0A2F5807261
:101A9000C3E70023E365CFE7002384F8543000E078
:101AA0000220BDE8F0810220FBE700BF00030450E4
:101AB00000020450000104504D13000841130008B7
:101AC000D513000890F85420012A00F08D8010B43E
:101AD0009BB00346012280F85420002216921792F0
:101AE0000068424A90423FD000220092009A002AA9
:101AF0003ED0926812F0040200D00122806810F0FB
:101B0000040F61D1002A5FD10A68002A39D0384C0D
:101B1000A26822F46042486893F830C040EA4C3032
:101B20000243A260314A906810F0010000D0012009
:101B3000304A926812F0010200D0012202432E487E
:101B4000806810F0010000D00120024348D1284CE9
:101B5000A26822F4716222F00F02086889680143CA
:101B60000A43A260002034E002F580720092BDE7D3
:101B70009A6D42F020029A65002283F854200120D9
:101B80002AE01B498A6822F460428A60174A9168F9
:101B900011F0010100D00121164A926812F00102F1
:101BA00000D001220A431449896811F0010100D0D4
:101BB00001210A4316D10E498A6822F4716222F08B
:101BC0000F028A60002004E09A6D42F020029A65BC
:101BD0000120002283F854201BB05DF8044B7047AD
:101BE0000020F6E70020F4E70220704700000450D0
:101BF000000304500001045000020450074AD36857
:101C000023F4E0631B041B0C000200F4E0600343B8
:101C100043F0BF6343F40033D360704700ED00E04E
:101C200000B5194BDB68C3F30223C3F1070CBCF109
:101C3000040F28BF4FF0040C03F1040EBEF1060F91
:101C400018D9033B4FF0FF3E0EFA0CFC21EA0C01C1
:101C500099400EFA03FE22EA0E020A4300280BDB2B
:101C60001201D2B200F1604000F5614080F800231B
:101C70005DF804FB0023E5E700F00F001201D2B28B
:101C8000024B1A54F4E700BF00ED00E014ED00E051
:101C9000002807DB00F01F02400901239340024A9D
:101CA00042F82030704700BF00E100E00138B0F199
:101CB000807F0BD24FF0E0235861054AF02182F873
:101CC00023100020986107221A6170470120704795
:101CD00000ED00E070B110B50446037933B1022382
:101CE0002371002020610123237110BD4371FFF790
:101CF00081F8F4E70120704770B504460D4611469F
:101D0000049A4079012865D0012060710220207179
:101D1000002D33D1A068304EC662A0682F4E0663F6
:101D2000A0682F4E46632668306840F480503060CB
:101D3000042A1DD0082A1ED0BAB12A46002D3BD154
:101D40002668306840F400503060A06800F004FA63
:101D500000236371002838D121680B6805F0100555
:101D60000122AA4013430B6070BD22680832E5E7E8
:101D700022680C32E2E722681032DFE7E068194E91
:101D8000C662E068184E0663E068184E466326682F
:101D9000306840F080503060042A07D0082A08D00C
:101DA0000AB10022CAE722681432C7E72268183253
:101DB000C4E722681C32C1E72668306840F0005052
:101DC0003060E06800F0C8F9C2E7236943F004031B
:101DD0002361C9E70220C7E7F31D0008051E0008BC
:101DE000111E0008ED1F0008FD1F00080720000855
:101DF000704710B5846A2046FFF7FAFF012323716C
:101E000010BD704708B5806AFFF7FBFF08BD70473B
:101E100010B5846A236943F0040323612046FFF769
:101E2000F6FF0123237110BD704710B50446036807
:101E30001A6812F4005F03D05A6B12F4005F09D1E4
:101E400023681A6812F0005F03D05A6B12F0005F2B
:101E500011D110BD04220271026942F00102026137
:101E60004FF400525A630268136823F480531360DE
:101E7000FFF7DAFFE4E704222271226942F002024E
:101E800022614FF000525A632268136823F0805396
:101E90001360204600F0A9F8DBE7F8B54379012B81
:101EA00000F09E8004460D4616460123437102232E
:101EB00003710B68042B33D02B69012B00F0838056
:101EC0002068C16B06F010020723934021EA03014A
:101ED0002B68AE683343EE68334393400B43C363D0
:101EE000206803684FF48041914023EA01030360B6
:101EF0002068016840F6FC73934021EA03016B6897
:101F000093400B43036020680368C02101FA02F28A
:101F100023EA020303600123237100206071F8BDEE
:101F2000FFF7F4F807469EB123685B6B002B43DA9A
:101F3000FFF7ECF8C01B0128F6D923685B6B002B78
:101F4000F2DA236943F00803236103202071E6E7F6
:101F500023685B6B13F4004F10D0FFF7D7F8C01B5A
:101F60000128F5D923685B6B13F4004FF0D0236987
:101F700043F00803236103202071D0E70120FFF71D
:101F8000CBF82368AA691A642068836C06F01002F3
:101F900040F2FF31914023EA0103E96991400B438C
:101FA00083642068C36CFF21914023EA0103296AFE
:101FB00091400B43C3647FE70120FFF7ADF823682E
:101FC000AA695A64E0E721688A6B06F010001F23B3
:101FD000834022EA03026B69834013438B636FE7FC
:101FE00002209CE7704770477047704710B5846ABD
:101FF0002046FFF7F7FF0123237110BD08B5806A63
:10200000FFF7F1FF08BD10B5846A236943F00403AC
:1020100023612046FFF7E8FF0123237110BD30B490
:10202000446C04F01C0C012404FA0CF4056C6C6084
:10203000046863608368102B05D0036899600368A7
:10204000DA6030BC704703689A600368D960F8E7CB
:10205000002873D010B403460068394A90424AD829
:10206000384A02443849A1FB0212120992005A640C
:10207000364A1A64022283F82520016821F4FF41C0
:1020800021F070019A68DC6822431C6922435C6974
:1020900022439C692243DC6922431C6A22430A438F
:1020A00002609A68B2F5804F1BD0196C274A9142A2
:1020B0002CD0264AD2F8A814586C00F01C0C0F2023
:1020C00000FA0CF021EA0001C2F8A814D2F8A81412
:1020D00058685C6C04F01C0C00FA0CF00143C2F868
:1020E000A8140020D863012283F8252083F8240057
:1020F0005DF8044B7047164A02441349A1FB0212D3
:10210000120992005A64134A1A64B3E7D2F8A8106D
:10211000586C00F01C0C0F2000FA0CF021EA0001B2
:10212000C2F8A810D2F8A81058685C6C04F01C0C17
:1021300000FA0CF00143C2F8A810D2E70120704762
:1021400007040240F8FFFDBFCDCCCCCC000002401C
:10215000F8FBFDBF0004024038B5044690F82400A7
:10216000012832D0012084F8240094F82500C0B260
:10217000012804D0002384F82430022038BD022036
:1021800084F825000020E0632568286820F001001D
:1021900028602046FFF743FF236B5BB1226813687A
:1021A00043F00E0313602268136843F001031360C9
:1021B0000020E3E72268136823F004031360226819
:1021C000136843F00A031360EDE70220D6E738B541
:1021D000036C196804682568436C03F01C0304222F
:1021E0009A400A4215D015F0040F12D0236813F05C
:1021F000200F03D1236823F004032360436C03F012
:102200001C02016C042393404B60036B03B198479D
:1022100038BD02229A400A421CD015F0020F19D094
:10222000236813F0200F06D1236823F00A032360EC
:10223000012380F82530436C03F01C02016C02235B
:1022400093404B60002380F82430C36A002BDFD01A
:102250009847DDE7082202FA03F30B42D8D015F0C5
:10226000080FD5D0236823F00E032360436C03F0DE
:102270001C03016C012202FA03F34B60C26380F875
:102280002520002380F82430436B002BC0D09847D2
:10229000BEE70000F0B583B0002362E085685E0011
:1022A0000324B44025EA0405CC68B4402C43846080
:1022B000456825EA0C054C68C4F300149C402C4387
:1022C000446060E0DD08083550F8254003F0070C55
:1022D0004FEA8C0C4FF00F0E0EFA0CFE24EA0E0E95
:1022E0000C6904FA0CF444EA0E0440F8254061E05D
:1022F000072400E0002404FA0EF42C430CF1020C35
:102300005C4D45F82C405C4CA568D44325EA020698
:102310004F6817F4801F01D042EA0506564DAE60A3
:10232000ED6804EA05064F6817F4001F01D042EA81
:102330000506514DEE606D6804EA05064F6817F416
:10234000003F01D042EA05064B4D6E602D682C40DF
:102350004E6816F4803F01D042EA0504464A1460F4
:1023600001330A6832FA03F400F081804FF0010C67
:102370000CFA03FC1CEA0202F2D04C6804F00304DD
:10238000013C012C8AD94C6804F00304032C0CD0C6
:10239000C4685D004FF0030C0CFA05FC24EA0C0C39
:1023A0008C68AC4044EA0C04C4604C6804F003043C
:1023B000022C87D004684FEA430E4FF0030C0CFA4E
:1023C0000EFC24EA0C0C4C6804F0030404FA0EF42E
:1023D00044EA0C0404604C6814F4403FC0D0274C1D
:1023E000256E45F001052566246E04F00104019474
:1023F000019C4FEA930C0CF102051E4C54F8255039
:1024000003F0030E4FEA8E0E0F2404FA0EF425EAB1
:102410000405B0F1904F3FF46DAF194CA0421AD0B3
:1024200004F58064A04218D004F58064A04216D060
:1024300004F58064A04214D004F58064A04212D058
:1024400004F58064A04210D004F58064A0423FF4FB
:102450004FAF08244FE701244DE702244BE7032444
:1024600049E7042447E7052445E7062443E703B08A
:10247000F0BD00BF00000140000401400010024018
:10248000000400480AB1816170478162704770B5ED
:102490008AB0002800F097800546046890F8BD34A3
:1024A0003BB3032385F8BD34E36B13F4807F01D184
:1024B0000023EB60286801F09BFE2C4654F8106B5B
:1024C000EC460FCCACE80F000FCCACE80F0094E862
:1024D00003008CE803002B1D0ECB304601F06CFE90
:1024E000044658B1022385F8BD34012420460AB0C1
:1024F00070BD80F8BC34FEF73FFDD2E700212868AC
:1025000001F094FF234616E003EBC30205EB8202C1
:10251000012182F83D1082F83C30A2F856300021AB
:1025200082F840105164916403EBC30205EB820210
:10253000D1640133DBB269688B42E5D316E004EB6A
:10254000C40305EB8303002283F87D2283F87C42D9
:1025500083F88022C3F88422C3F8882204EBC403E2
:1025600005EB8303C3F88C220134E4B2A142E6D820
:102570002C4654F8106BEC460FCCACE80F000FCC97
:10258000ACE80F0094E803008CE803002B1D0ECB91
:10259000304601F089FE044660B9002385F83830E2
:1025A000012385F8BD346B6A012B08D0286801F03F
:1025B0002BFF9BE7022385F8BD34012496E72846CC
:1025C00000F003F8F2E7012490E7034602680121D6
:1025D000C0F80015002083F8F404936943F0006309
:1025E0009361536D43F0805343F003035365704789
:1025F000024A136843F48073136070470070004010
:10260000024B186800F4C060704700BF00700040C3
:10261000B0F5007F0FD01F4B1B6803F4C063B3F508
:10262000806F34D01B4A136823F4C06343F4806383
:10263000136000207047174B1B6803F4C063B3F5A9
:10264000007F20D0134A136823F4C06343F400735F
:102650001360114B1B68322202FB03F30F4AA2FBEB
:1026600003239B0C013300E0013B0A4A526912F438
:10267000806F01D0002BF7D1064B5B6913F4806F9C
:1026800003D10020704700207047032070470020CE
:10269000704700BF007000400000002083DE1B4335
:1026A000024A536843F480635360704700700040EF
:1026B000024A536843F4007353607047007000404F
:1026C00030B583B00446204B9B6D13F0805F0BD078
:1026D000FFF796FFB0F5007F17D0802C1FD82DD0C4
:1026E000702C2DD000211BE0174DAB6D43F08053B3
:1026F000AB65AB6D03F080530193019BFFF780FF47
:10270000AB6D23F08053AB65E4E7802C03D9A02C9C
:1027100003D9022104E0002102E0012100E00321AD
:102720000A4A136823F007030B431360136803F08E
:1027300007038B4206D1002003B030BD0221EFE732
:102740000121EDE70120F7E70010024000200240E0
:10275000284A9368D26802F0030213F00C030AD0EF
:102760000C2B06D0042B1FD0082B20D000200246B3
:1027700010E0012AF6D11F4A126812F0080F0CD19E
:102780001C4AD2F89420C2F303221B4951F822209C
:1027900043B100200C2B0DD07047164A1268C2F3CB
:1027A0000312F2E71046F5E714480022F2E7144856
:1027B0000022EFE70F4BDB6803F00303022B16D078
:1027C000032B00D10E4A0B49CB68C3F3021301332C
:1027D000C868C0F3062002FB00F0B0FBF3F0CB6842
:1027E000C3F3416301335B00B0FBF3F0D4E7034A6A
:1027F000E9E700BF00100240384800080024F40058
:1028000000127A00002800F02283F0B583B004465D
:10281000964B9D6805F00C05DE6806F0030603681C
:1028200013F0100F5AD0E5B10C2D18D0A369002B6E
:1028300000F0BB808D4A136843F001031360FEF77C
:1028400065FC0746894B1B6813F0020F40F09A8025
:10285000FEF75CFCC01B0228F4D9032002E3012E22
:10286000E4D1824B1B6813F0020F03D0A369002B45
:1028700000F0EF82206A7D4B1B6813F0080F5BD0DD
:102880007A4B1B6803F0F00398425CD8774B1A68C8
:1028900042F008021A601A6822F0F002216A0A4324
:1028A0001A605A6822F47F42E16942EA01225A60C2
:1028B000002D60D0FFF74CFF6C4B9B68C3F30313F4
:1028C0006B4AD35C03F01F03D8406A4B18606A4B15
:1028D0001868FEF7D7FB002840F0C482236813F085
:1028E000010F00F08180082D75D00C2D71D0636828
:1028F000B3F5803F00F09780B3F5A02F00F09980EA
:102900005A4B1A6822F480321A601A6822F4802224
:102910001A606368002B00F09980FEF7F7FB07460A
:10292000524B1B6813F4003F5ED1FEF7EFFBC01B58
:102930006428F5D9032095E24C4BD3F894301B0959
:1029400003F0F003A0E7FFF7BBFE002840F083820E
:10295000464B1A6842F008021A601A6822F0F00228
:10296000216A0A431A605A6822F47F42E16942EA06
:1029700001225A609EE7206AFFF7A2FE002899D044
:1029800001206FE2394B1A6842F008021A601A6897
:1029900022F0F002216A0A431A605A6822F47F4248
:1029A000E16942EA01225A6098E7304A136823F04D
:1029B00001031360FEF7AAFB07462C4B1B6813F0BC
:1029C000020F8BD0FEF7A2FBC01B0228F5D9032013
:1029D00048E2032E8BD1254B1B6813F4003F03D034
:1029E0006368002B00F03982236813F0020F58D07F
:1029F000042D45D00C2D41D0E368002B77D01B4A25
:102A0000136843F480731360FEF780FB0646174B90
:102A10001B6813F4806F61D1FEF778FB801B0228DE
:102A2000F5D903201EE2114A136843F48033136082
:102A30006FE703F18043A3F53C331A6842F4802228
:102A40001A601A6842F480321A6062E7FEF75EFB91
:102A50000746064B1B6813F4003FC5D0FEF756FB34
:102A6000C01B6428F5D90320FCE100BF0010024020
:102A7000204800080000002008000020022EBBD1E2
:102A8000A74B1B6813F4806F03D0E368002B00F0A2
:102A9000E681A34A536823F0FE43216943EA0163B8
:102AA0005360236813F0080F4CD063699BB39C4AB2
:102AB000D2F8943043F00103C2F89430FEF726FBBD
:102AC0000646974BD3F8943013F0020F3AD1FEF735
:102AD0001DFB801B0228F4D90320C3E1904A5368F0
:102AE00023F0FE43216943EA01635360D9E78C4A2E
:102AF000136823F480731360FEF708FB0646884BC7
:102B00001B6813F4806FCCD0FEF700FB801B0228FB
:102B1000F5D90320A6E1824AD2F8943023F00103CC
:102B2000C2F89430FEF7F2FA06467D4BD3F89430A3
:102B300013F0020F06D0FEF7E9FA801B0228F4D941
:102B400003208FE1236813F0040F7AD0744B9B6D40
:102B500013F0805F36D1724B9A6D42F080529A65C5
:102B60009B6D03F080530193019B01266D4B1B6805
:102B700013F4807F28D0A368012B39D0052B3FD0D8
:102B8000674BD3F8902022F00102C3F89020D3F8CD
:102B9000902022F00402C3F89020A368002B3DD0BF
:102BA000FEF7B4FA07465E4BD3F8903013F0020FED
:102BB00046D1FEF7ABFAC01B41F288339842F2D9F6
:102BC00003204FE10026D1E7564A136843F480738F
:102BD0001360FEF79BFA0746524B1B6813F4807F85
:102BE000C9D1FEF793FAC01B0228F5D9032039E1B9
:102BF0004B4AD2F8903043F00103C2F89030CCE752
:102C0000474BD3F8902042F00402C3F89020D3F849
:102C1000902042F00102C3F89020BEE7FEF776FA5A
:102C200007463F4BD3F8903013F0020F08D0FEF761
:102C30006DFAC01B41F288339842F2D9032011E1AA
:102C4000E6B9236813F0200F35D0636AE3B1344A44
:102C5000D2F8983043F00103C2F89830FEF756FAE4
:102C600006462F4BD3F8983013F0020F23D1FEF70E
:102C70004DFA801B0228F4D90320F3E0284A936D13
:102C800023F080539365DCE7254AD2F8983023F08F
:102C90000103C2F89830FEF739FA0646204BD3F804
:102CA000983013F0020F06D0FEF730FA801B02288E
:102CB000F4D90320D6E0A36A002B00F0D280022BC7
:102CC00017D00C2D00F0D480154A136823F08073C0
:102CD0001360FEF71BFA0446114B1B6813F0007FCC
:102CE00000F0AE80FEF712FA001B0228F4D9032090
:102CF000B8E00B4BDB6803F00301E26A914213D0AA
:102D00000C2D00F0B180064B1B6813F0806F40F073
:102D1000AD80034B1B6813F0805F2FD00120A1E032
:102D2000001002400070004003F07002216B013976
:102D3000B2EB011FE4D103F4FE42616BB2EB012F51
:102D4000DED103F07842A16BB2EBC16FD8D103F4AE
:102D5000C001E26B5208013AB1EB425FD0D103F0FF
:102D6000C063226C5208013AB3EB426FC8D1414BA9
:102D70001B6813F0007F49D0002073E03D4A1368C0
:102D800023F080731360FEF7C1F90546394B1B68C9
:102D900013F0007F06D0FEF7B9F9401B0228F5D9E1
:102DA00003205FE0334AD36833491940E36A206B5C
:102DB000013843EA0013606B43EA0023E06B4008EC
:102DC000013843EA4053206C4008013843EA40632D
:102DD000A06B43EAC0631943D160136843F080736A
:102DE0001360D36843F08073D360FEF78FF9044615
:102DF000204B1B6813F0007F06D1FEF787F9001BFC
:102E00000228F5D903202DE000202BE0194B1A6889
:102E100042F080721A60DA6842F08072DA60FEF77F
:102E200075F90446134B1B6813F0007F06D1FEF7BB
:102E30006DF9031B022BF5D9032013E0002011E0EC
:102E40000C4AD1680D4B0B40D36000200AE00120F2
:102E50007047012006E0012004E0012002E001208B
:102E600000E0002003B0F0BD0120FBE70120F9E7FE
:102E70000120F7E7001002408C809D01FCFFEEFE70
:102E8000002800F0AF8070B50D460446594B1B6812
:102E900003F007038B420BD2564A136823F0070353
:102EA0000B431360136803F007038B4240F09C80D0
:102EB000236813F0020F0CD0A2684F4B9B6803F0FD
:102EC000F0039A4205D94C498B6823F0F0031A436A
:102ED0008A60236813F0010F39D06368032B09D08F
:102EE000022B26D063BB444A126812F0020F06D1AF
:102EF000012076E0404A126812F0007F76D03E4909
:102F00008A6822F0030213438B60FEF7FFF806463F
:102F1000394B9B6803F00C036268B3EB820F16D049
:102F2000FEF7F4F8801B41F288339842F0D9032071
:102F300057E0314A126812F4003FE0D1012050E01E
:102F40002D4A126812F4806FD9D1012049E023681C
:102F500013F0020F0CD0A268274B9B6803F0F0031C
:102F60009A4205D224498B6823F0F0031A438A6001
:102F7000204B1B6803F00703AB420AD91D4A1368B4
:102F800023F007032B431360136803F00703AB42DE
:102F90002ED1236813F0040F06D0174A936823F448
:102FA000E063E1680B439360236813F0080F07D0D8
:102FB000114A936823F46053216943EAC103936083
:102FC000FFF7C6FB0C4B9B68C3F303130B4AD35CA0
:102FD00003F01F03D8400A4B18600A4B1868FEF72D
:102FE00051F870BD012070470120FAE70120F8E791
:102FF0000120F6E7002002400010024020480008AF
:103000000000002008000020014B1868704700BF36
:103010000000002008B5FFF7F7FF054B9B68C3F3DE
:103020000223044AD35C03F01F03D84008BD00BF4D
:10303000001002403048000808B5FFF7E5FF054BD7
:103040009B68C3F3C223044AD35C03F01F03D84038
:1030500008BD00BF0010024030480008F8B5044623
:103060000F46584BDB6813F0030F18D0554BDB6845
:1030700003F003030268934202D001252846F8BDFD
:10308000002A00F09D804F4BDB68C3F3021301332D
:103090004268934201D00125F0E7002509E003686A
:1030A000022B56D0032B5BD0012B41D00125002DE4
:1030B000E4D1444A136823F080631360FEF726F8D6
:1030C0000646404B1B6813F0006F05D0FEF71EF854
:1030D000831B022BF5D90325002DCFD1002F4DD115
:1030E00038490B6923F0784323F4FE43A068E26873
:1030F000D20642EA002213430B61324A136843F0BE
:1031000080631360FEF702F806462E4B1B6813F02F
:10311000006F05D1FDF7FAFF831B022BF5D90325BC
:10312000002DABD1274A1369A1690B431361A5E7B1
:10313000244A126812F0020F1ED02248C26822F000
:1031400073026168013943EA01131343C360002528
:10315000ADE71C4A126812F4806FEED10125A6E794
:10316000184A126812F4003FE7D1164A126812F4A6
:10317000802FE2D101259AE7012598E7012F0FD092
:103180001048026922F0C06222F4FE42A16863691D
:103190005B08013B5B0643EA01231A430261ACE78B
:1031A0000848026922F4C00222F4FE42A1682369A1
:1031B0005B08013B5B0543EA01231A4302619CE77C
:1031C00001255BE700100240F8B504460F464F4B5F
:1031D000DB6813F0030F18D04C4BDB6803F00303DC
:1031E0000268934202D001252846F8BD002A00F06B
:1031F0008B80464BDB68C3F3021301334268934272
:1032000001D00125F0E7002509E00368022B56D024
:10321000032B5BD0012B41D00125002DE4D13B4A8B
:10322000136823F080531360FDF770FF0646374B99
:103230001B6813F0005F05D0FDF768FF831B022BAE
:10324000F5D90325002DCFD1002F4DD12F494B6942
:1032500023F0784323F4FE43A068E268D20642EAF2
:10326000002213434B61294A136843F080531360D3
:10327000FDF74CFF0646254B1B6813F0005F05D198
:10328000FDF744FF831B022BF5D90325002DABD19D
:103290001E4A536961690B435361A5E71B4A1268D3
:1032A00012F0020F1ED01948C26822F07302616842
:1032B000013943EA01131343C3600025ADE7134A04
:1032C000126812F4806FEED10125A6E70F4A12684A
:1032D00012F4003FE7D10D4A126812F4802FE2D1B8
:1032E00001259AE7012598E70848426922F0C06263
:1032F00022F4FE42A16823695B08013B5B0643EAB6
:1033000001231A434261AEE701256DE70010024038
:103310002DE9F04182B00446036813F4006F33D006
:10332000836EB3F5000F1FD00CD823B3B3F5800F15
:1033300005D100212030FFF747FF064620E0012796
:103340003E4623E0B3F5400F0BD10026604AD2F889
:10335000883023F44003A16E0B43C2F88830002765
:1033600014E001273E4611E0594AD36843F4803304
:10337000D3600026EAE700210430FFF76FFE06461F
:10338000002EE3D0374601E000273E46236813F4C1
:10339000805F30D0E36EB3F1007F1FD00DD81BB338
:1033A000B3F1807F06D1002104F12000FFF70CFF6C
:1033B000064605E001273E461DE0B3F1407F0AD1F5
:1033C000C6B9434AD2F8883023F04073E16E0B430C
:1033D000C2F888300FE001273E460CE03C4AD36833
:1033E00043F48033D360EBE70021201DFFF736FE66
:1033F0000646E5E73746236813F4003F71D0344BA7
:103400009B6D13F0805F4ED1314B9A6D42F080522C
:103410009A659B6D03F080530193019B4FF0010867
:103420002C4A136843F480731360FDF76FFE054662
:10343000284B1B6813F4807F05D1FDF767FE401B06
:103440000228F5D90326002E46D1214BD3F890301F
:1034500013F4407316D0D4F888209A4212D01C4A34
:10346000D2F8903023F44073D2F8901041F48031B8
:10347000C2F89010D2F8901021F48031C2F8901068
:10348000C2F8903013F0010F10D1002E40F03581BA
:103490000F4AD2F8903023F44073D4F888100B43CD
:1034A000C2F8903019E04FF00008B9E7FDF72EFEA2
:1034B0000546074BD3F8903013F0020FE5D1FDF726
:1034C00025FE401B41F288339842F2D90326DCE7FF
:1034D00000100240007000403746B8F1000F40F085
:1034E0000E81236813F0010F08D0A44AD2F8883067
:1034F00023F00303A16B0B43C2F88830236813F059
:10350000020F08D09D4AD2F8883023F00C03E16BFB
:103510000B43C2F88830236813F0040F08D0974A91
:10352000D2F8883023F03003216C0B43C2F8883086
:10353000236813F0080F08D0904AD2F8883023F09F
:10354000C003616C0B43C2F88830236813F0100F7E
:1035500008D08A4AD2F8883023F44073A16C0B4318
:10356000C2F88830236813F0200F08D0834AD2F8BD
:10357000883023F44063E16C0B43C2F88830236841
:1035800013F4007F08D07D4AD2F8883023F440231A
:10359000216E0B43C2F88830236813F4806F08D083
:1035A000764AD2F8883023F44013616E0B43C2F898
:1035B0008830236813F0400F08D0704AD2F8883062
:1035C00023F44053216D0B43C2F88830236813F075
:1035D000800F08D0694AD2F8883023F44043616DE7
:1035E0000B43C2F88830236813F4807F08D0634A05
:1035F000D2F8883023F44033A16D0B43C2F88830F1
:10360000236813F4801F08D05C4AD2F89C3023F062
:103610000303E16D0B43C2F89C30236813F4005F91
:103620000FD0564AD2F8883023F04063216F0B4305
:10363000C2F88830236FB3F1006F66D0B3F1806FAA
:1036400068D0236813F4002F0FD04C4AD2F888308A
:1036500023F04063616F0B43C2F88830636FB3F1AE
:10366000006F5FD0B3F1806F61D0236813F4802FB7
:103670000FD0424AD2F8883023F04063A16F0B4349
:10368000C2F88830A36FB3F1006F58D0B3F1806FE8
:103690005AD0236813F4804F0FD0384AD2F88830BC
:1036A00023F04053E16F0B43C2F88830E36FB3F16E
:1036B000805F51D0B3F1005F56D0236813F4004F00
:1036C00009D02E4AD2F8883023F08043D4F88010F5
:1036D0000B43C2F88830236813F4803F09D0274A8F
:1036E000D2F8883023F00043D4F884100B43C2F89A
:1036F0008830384602B0BDE8F0813746EDE61F4A13
:10370000936D23F080539365EBE6D36843F4801305
:10371000D36096E70121201DFFF7A0FC002890D080
:1037200007468EE7D36843F48013D3609DE70121F9
:10373000201DFFF793FC002897D0074695E7D36834
:1037400043F48013D360A4E70121201DFFF786FC1A
:1037500000289ED007469CE70221201DFFF77EFC33
:103760000028AAD00746A8E7022104F12000FFF7AD
:103770002BFD0028A1D007469FE700BF00100240A4
:10378000024A136843F004031360704700100240BC
:1037900090F83D30DBB2012B36D1022380F83D306A
:1037A0000268D36843F00103D3600368194A934267
:1037B0001CD0B3F1804F19D0A2F59432934215D0AA
:1037C00002F58062934211D002F5806293420DD0DF
:1037D00002F59432934209D002F54062934205D03B
:1037E0001A6842F001021A600020704799680A4A7C
:1037F0000A40062A0AD0B2F5803F09D01A6842F082
:1038000001021A60002070470120704700207047B5
:1038100000207047002C01400700010070477047EE
:103820007047704770B504460368DE681D6915F07F
:10383000020F10D016F0020F0DD06FF002021A61C5
:103840000123037703689B6913F0030F64D0FFF72C
:10385000E6FF0023237715F0040F12D016F0040FB3
:103860000FD023686FF004021A61022323772368C4
:103870009B6913F4407F55D02046FFF7D0FF00230B
:10388000237715F0080F12D016F0080F0FD0236819
:103890006FF008021A61042323772368DB6913F0B1
:1038A000030F46D02046FFF7BAFF0023237715F019
:1038B000100F12D016F0100F0FD023686FF0100207
:1038C0001A61082323772368DB6913F4407F37D01C
:1038D0002046FFF7A4FF0023237715F0010F02D045
:1038E00016F0010F33D115F0800F02D016F0800FC3
:1038F00035D115F4807F02D016F0800F37D115F046
:10390000400F02D016F0400F39D115F0200F02D031
:1039100016F0200F3BD170BDFFF780FF2046FFF768
:103920007FFF96E72046FFF779FF2046FFF778FFF5
:10393000A5E72046FFF772FF2046FFF771FFB4E7C7
:103940002046FFF76BFF2046FFF76AFFC3E72368B7
:103950006FF001021A612046FDF70AF8C3E72368F9
:103960006FF080021A61204600F0FBF8C1E723687F
:103970006FF480721A61204600F0F4F8BFE7236804
:103980006FF040021A612046FFF74BFFBDE7236846
:103990006FF020021A61204600F0E2F8BBE7000059
:1039A0000368304A904212D0B0F1804F0FD0A2F598
:1039B000943290420BD002F58062904207D002F51B
:1039C0008062904203D002F59432904203D123F0FA
:1039D00070034A681343234A90421ED0B0F1804FCF
:1039E0001BD0A2F59432904217D002F5806290422B
:1039F00013D002F5806290420FD002F594329042CB
:103A00000BD002F54062904207D002F580629042EE
:103A100003D002F58062904203D123F44073CA6858
:103A2000134323F080034A69134303608B68C36226
:103A30000B6883620B4B98420FD003F500639842EA
:103A40000BD003F54063984207D003F5806398429A
:103A500003D003F58063984201D10B69036301230E
:103A600043617047002C014060B310B5044690F8E4
:103A70003D3013B3022384F83D30214651F8040B46
:103A8000FFF78EFF012384F8483084F83E3084F835
:103A90003F3084F8403084F8413084F8423084F874
:103AA000433084F8443084F8453084F8463084F854
:103AB000473084F83D30002010BD80F83C30FDF7E1
:103AC0003BFAD7E70120704790F83C20012A42D00A
:103AD00030B40346012280F83C20022280F83D20C9
:103AE0000068426884681D4DA84203D005F5006552
:103AF000A84203D122F470024D682A4322F07002DA
:103B00000D682A4342601A681448824216D0B2F106
:103B1000804F13D0A0F5943082420FD000F5806022
:103B200082420BD000F58060824207D000F59430CD
:103B3000824203D000F54060824204D124F0800428
:103B4000896821439160012283F83D20002083F899
:103B50003C0030BC70470220704700BF002C014081
:103B6000704770477047026852E8003F23F4907333
:103B700042E800310029F6D1026802F1080353E857
:103B8000003F23F00103083242E800310029F3D15D
:103B9000036E012B06D02023C0F88030002303667B
:103BA00083667047026852E8003F23F0100342E842
:103BB00000310029F6D1EEE710B5044601688368AC
:103BC0000269134342691343C269134308688E4A6A
:103BD00002401A430A602268536823F44053E168A4
:103BE0000B435360A1692268884B9A4201D0236A33
:103BF0001943936823F430630B4393602368844A2A
:103C0000934210D0834A934221D0834A934237D0C3
:103C1000824A93425CD0824A93426BD07B4A934261
:103C20007DD010223AE002F55842D2F8882002F006
:103C30000302032A09D8DFE802F002048706012202
:103C40002CE004222AE0082228E0102226E002F5D7
:103C5000E632D2F8882002F00C020C2A0ED8DFE8F7
:103C600002F0070D0D0D090D0D0D750D0D0D0B005D
:103C7000002213E0042211E008220FE010220DE0E0
:103C800002F5E432D2F8882002F03002202A5FD018
:103C90001AD8002A5ED0102A5ED104225B498B42DA
:103CA00076D0E069B0F5004F00F0A380082A00F25A
:103CB0000E81DFE812F0DD00F300DB000C01F600FE
:103CC0000C010C010C01F900302A47D10822E5E76C
:103CD00002F5E232D2F8882002F0C002802A3FD0FA
:103CE00004D8FAB3402A3FD10422D7E7C02A3DD1F5
:103CF0000822D3E702F5E032D2F8882002F44072BD
:103D0000B2F5007F34D005D8A2B3B2F5807F33D1AD
:103D10000422C3E7B2F5407F30D10822BEE702F5A6
:103D2000C832D2F8882002F44062B2F5006F27D082
:103D300005D83AB3B2F5806F26D10422AEE7B2F5CA
:103D4000406F23D10822A9E70222A7E70222A5E7B4
:103D50000222A3E70022A1E710229FE710229DE79D
:103D600002229BE7002299E7102297E7102295E7AD
:103D7000022293E7002291E710228FE710228DE7BD
:103D800002228BE7002289E7102287E7102285E7CD
:103D9000082A00F28C80DFE802F0088A2A8A278A43
:103DA0008A8A05004FF4004003E0FFF733F900284A
:103DB0007FD0626802EB420383427CD8B0EB023FC3
:103DC0007BD8010E00025308C0184FF0000341F1E8
:103DD0000001FCF7FBFCA0F54072124B9A426ED832
:103DE0002368D860002055E0FEF7B2FCDFE70E48FC
:103DF000DFE7082A65D8DFE802F019330564366486
:103E000064641D00084815E0F369FFEF008000407E
:103E1000003801400044004000480040004C004091
:103E200000500040FFFC0F000024F400FFF7F2F800
:103E3000002848D06268530803EB4003B3FBF2F359
:103E4000A3F110014FF6EF7291423ED89AB222F0E0
:103E50000F02C3F3420313432268D360002019E02A
:103E6000FFF7EAF8E4E7FEF773FCE1E71B4802E03E
:103E7000FFF7D0F868B3636800EB5300B0FBF3F0D2
:103E8000A0F110024FF6EF739A4224D8236880B253
:103E9000D86000200023A366E36610BDFFF7CCF8CE
:103EA000E8E7FEF755FCE5E74FF40040E3E70120C3
:103EB000F0E70020EEE70120ECE70120EAE701202F
:103EC000E8E70120E6E70020E4E70120E2E701203F
:103ED000E0E70020DEE70120DCE700BF0024F4007B
:103EE000436A13F0080F06D00268536823F40043B6
:103EF000416B0B435360436A13F0010F06D0026815
:103F0000536823F40033816A0B435360436A13F010
:103F1000020F06D00268536823F48033C16A0B4352
:103F20005360436A13F0040F06D00268536823F409
:103F30008023016B0B435360436A13F0100F06D0CC
:103F40000268936823F48053816B0B439360436A48
:103F500013F0200F06D00268936823F40053C16B5E
:103F60000B439360436A13F0400F0AD00268536812
:103F700023F48013016C0B435360036CB3F5801F73
:103F80000BD0436A13F0800F06D00268536823F405
:103F90000023816C0B43536070470268536823F41D
:103FA000C003416C0B435360EBE72DE9F843054632
:103FB0000F4616469946DDF820802B68DC6937EA03
:103FC00004040CBF01240024B44232D1B8F1FF3FF5
:103FD000F3D0FDF79BF8A0EB090040452CD8B8F1D1
:103FE000000F2BD02B681A6812F0040FE5D0DA69A5
:103FF00012F0080F11D1DA6912F4006FDDD04FF41E
:1040000000621A622846FFF7AEFD2023C5F884300F
:10401000002385F8783003200CE008241C62284631
:10402000FFF7A1FDC5F88440002385F87830012012
:1040300000E00020BDE8F8830320FBE70320F9E758
:1040400030B583B004460023C0F88430FDF75EF835
:1040500005462268126812F0080F0FD123681B680A
:1040600013F0040F26D12023E367C4F8803000202A
:104070002066606684F8780003B030BD6FF07E4340
:104080000093034600224FF400112046FFF78DFFF6
:104090000028E3D0226852E8003F23F0800342E882
:1040A00000310029F6D12023E367002384F878301B
:1040B0000320E1E76FF07E4300932B4600224FF48C
:1040C00080012046FFF771FF0028CCD0226852E81B
:1040D000003F23F4907342E800310029F6D12268B2
:1040E00002F1080353E8003F23F00103083242E8DD
:1040F00000310029F3D12023C4F88030002384F854
:1041000078300320B8E768B310B50446C36F03B333
:104110002423E3672268136823F001031360636AB2
:10412000E3B92046FFF748FD012811D02268536803
:1041300023F4904353602268936823F02A0393602A
:104140002268136843F0010313602046FFF778FFED
:1041500010BD80F87830FCF7A7FED9E72046FFF7BE
:10416000BFFEDEE70120704782B000230193019B70
:1041700001330193019A0F4B9A4215D80369002B22
:10418000F5DA00230193036943F001030361019B06
:1041900001330193019A074B9A4208D8036913F03F
:1041A000010FF4D1002000E0032002B0704703208B
:1041B000FBE700BF400D030084B010B504460DF1CD
:1041C0000C0C8CE80E00C36843F04003C360FFF79B
:1041D000CBFF0C9B3BB9A36B43F48033A363BDE8D7
:1041E000104004B07047A36B23F48033A363F6E759
:1041F000836823F0010383600020704782B00023AE
:104200000193019B01330193019A0F4B9A4215D8F8
:104210000369002BF5DA00230193890141F02001A5
:104220000161019B01330193019A074B9A4208D81F
:10423000036913F0200FF4D1002000E0032002B046
:1042400070470320FBE700BF400D030082B000234E
:104250000193019B01330193019A0E4B9A4213D8AB
:104260000369002BF5DA0023019310230361019BFE
:1042700001330193019A074B9A4208D8036913F05E
:10428000100FF4D1002000E0032002B0704703209B
:10429000FBE700BF400D0300D0F800381943C0F819
:1042A000001800207047000084B0F8B5044607A845
:1042B00080E80E00002306E003F1400204EB8202D6
:1042C0000021516001330E2BF6D9119E76BBD4F834
:1042D000043843F00203C4F80438A36B23F400133A
:1042E000A363236843F040032360236843F0800303
:1042F00023600023C4F8003E03212046FFF7CCFFD3
:1043000010212046FFF77AFF054600B1012520461F
:10431000FFF79CFF00B1012504F5006C0023CCF8E9
:104320001030CCF81430CCF81C300FE0A36B43F401
:104330000013A363DDE7C3B94FF00060C2F80009C2
:1043400000220A614FF67F328A6001330799994251
:1043500010D904EB431202F51061D2F800090028CD
:10436000E9DB0020C2F80009EAE74FF09040C2F80C
:104370000009E5E700230AE0BBB14FF09047C2F81F
:10438000007B002202614FF67F3282600133994246
:1043900010D904EB431202F53060D2F8007B002FF5
:1043A000EADB0027C2F8007BEBE74FF00067C2F8BA
:1043B000007BE6E7DCF8103023F48073CCF8103093
:1043C0000023A3616FF080436361A36943F010038E
:1043D000A361A2690B4B1343A3610D9B1BB1A3699E
:1043E00043F00803A361012E04D02846BDE8F8403D
:1043F00004B07047A36943F0804343F00403A36112
:10440000F3E700BF00383C80D0F8003E23F0030300
:10441000C0F8003ED0F8043843F00203C0F8043876
:1044200000207047406900F00100704738B505462C
:10443000C36823F0C043C360012913D019BBC3680C
:1044400043F08043C36000240120FCF765FE013483
:104450002846FFF7E7FF08B1312CF5D9322C14D0EC
:10446000002038BDC36843F00053C360002401201E
:10447000FCF752FE01342846FFF7D4FF0128EDD0A7
:10448000312CF4D9EAE70120EBE70120E9E700004D
:10449000DFF834D0FCF7ECFD0C480D490D4A002341
:1044A00002E0D458C4500433C4188C42F9D30A4AE9
:1044B0000A4C002301E013600432A242FBD300F057
:1044C00019F8FCF7FBFBFEE70000052000000020C8
:1044D000100000208048000810000020240F002059
:1044E000FEE702440346934200D1704703F8011BE4
:1044F000F9E7000070B50D4D0D4C641BA4100026AB
:10450000A64209D10B4D0C4C00F07CF9641BA410A1
:104510000026A64205D170BD55F8043B98470136E8
:10452000EEE755F8043B98470136F2E7704800087B
:104530007048000870480008744800082DE9F047EA
:10454000089E0D4604460F46002B4AD18A429446E7
:1045500065D9B2FA82F343B102FA03FCC3F1200237
:104560009F4020FA02F217439C404FEA1C4E1FFA6C
:104570008CF5B7FBFEF1220C0EFB117742EA0742E5
:1045800001FB05F090420AD91CEB020201F1FF3752
:1045900080F01C81904240F2198102396244121A63
:1045A000A4B2B2FBFEF00EFB102244EA024400FB70
:1045B00005F5A5420AD91CEB040400F1FF3280F096
:1045C0000781A54240F204816444023840EA014078
:1045D000641B00211EB1DC400023C6E90043BDE896
:1045E000F0878B4208D9002E00F0ED800021C6E94B
:1045F00000050846BDE8F087B3FA83F1002949D1E8
:10460000AB4202D3824200F2F880841A65EB0302C7
:1046100001201746002EE2D0C6E90047DFE702B9C5
:10462000FFDEB2FA82F3002B40F090808A1A4FEA44
:104630001C471FFA8CFE0121B2FBF7F507FB152082
:10464000220C42EA00420EFB05F0904208D91CEB16
:10465000020205F1FF3802D2904200F2CB804546BB
:10466000121AA4B2B2FBF7F007FB102244EA02448C
:104670000EFB00FEA64508D91CEB040400F1FF3236
:1046800002D2A64500F2BB801046A4EB0E0440EA1D
:1046900005409FE7C1F120078B4022FA07FC4CEA56
:1046A000030C05FA01F420FA07F3FD404FEA1C4918
:1046B0002343B5FBF9F81FFA8CFE09FB18551C0CB7
:1046C00044EA054408FB0EF5A54202FA01F200FA9D
:1046D00001F00BD91CEB040408F1FF3A80F088804C
:1046E000A54240F28580A8F102086444641B9DB293
:1046F000B4FBF9F309FB134445EA044403FB0EFE43
:10470000A64508D91CEB040403F1FF356CD2A6457D
:104710006AD9023B644443EA0843A3FB0295A4EB35
:104720000E04AC42C846AE4656D353D056B1B0EB99
:10473000080264EB0E0404FA07F7CA40CC401743A2
:10474000C6E9007418460021BDE8F087C3F12001D6
:1047500002FA03FC20FA01F225FA01F19D402A43F6
:104760004FEA1C471FFA8CFEB1FBF7F007FB101550
:10477000110C41EA054100FB0EF58D4204FA03F4E9
:1047800008D91CEB010100F1FF382FD28D422DD941
:1047900002386144491B92B2B1FBF7F507FB1511D2
:1047A00042EA014205FB0EF1914208D91CEB0202DC
:1047B00005F1FF3816D2914214D9023D6244521AD3
:1047C00045EA004138E73146304608E73946E6E633
:1047D0001046FBE64845A9D2B9EB020865EB0C0E82
:1047E000013BA3E74546EAE72B4694E74046D1E77D
:1047F000D0467BE7023D624432E708460AE764445C
:10480000023842E7F8B500BFF8BC08BC9E467047C6
:10481000F8B500BFF8BC08BC9E4670470000000019
:104820000000000000000000010203040607080960
:104830000000000001020304A0860100400D0300F7
:10484000801A060000350C0040420F0080841E00D4
:1048500000093D0000127A000024F40000366E01C9
:084860000048E801006CDC02D5
:08486800D4FCFF7F01000000F9
:0848700025080008000000000B
:08487800010800080000000027
:1048800000093D00010000001000000000000000D1
:04000005080044911A
:00000001FF
